{
    "_format": "hh-sol-artifact-1",
    "contractName": "BuyMeACoffee",
    "sourceName": "contracts/BuyMeACoffee.sol",
    "abi": [
        {
            "inputs": [],
            "stateMutability": "payable",
            "type": "constructor"
        },
        {
            "anonymous": false,
            "inputs": [
                {
                    "indexed": false,
                    "internalType": "uint256",
                    "name": "_timestamp",
                    "type": "uint256"
                },
                {
                    "indexed": false,
                    "internalType": "address",
                    "name": "_coffeeBuyer",
                    "type": "address"
                },
                {
                    "indexed": false,
                    "internalType": "uint256",
                    "name": "_coffeesBought",
                    "type": "uint256"
                },
                {
                    "indexed": false,
                    "internalType": "string",
                    "name": "_message",
                    "type": "string"
                }
            ],
            "name": "CoffeeBought",
            "type": "event"
        },
        {
            "stateMutability": "payable",
            "type": "fallback"
        },
        {
            "inputs": [],
            "name": "balanceOfContract",
            "outputs": [
                {
                    "internalType": "uint256",
                    "name": "",
                    "type": "uint256"
                }
            ],
            "stateMutability": "view",
            "type": "function"
        },
        {
            "inputs": [
                {
                    "internalType": "string",
                    "name": "message",
                    "type": "string"
                }
            ],
            "name": "buyCoffee",
            "outputs": [],
            "stateMutability": "payable",
            "type": "function"
        },
        {
            "inputs": [
                {
                    "internalType": "address",
                    "name": "",
                    "type": "address"
                }
            ],
            "name": "coffeeBuyers",
            "outputs": [
                {
                    "internalType": "uint256",
                    "name": "",
                    "type": "uint256"
                }
            ],
            "stateMutability": "view",
            "type": "function"
        },
        {
            "inputs": [
                {
                    "internalType": "uint256",
                    "name": "",
                    "type": "uint256"
                }
            ],
            "name": "coffeeBuys",
            "outputs": [
                {
                    "internalType": "uint256",
                    "name": "_timestamp",
                    "type": "uint256"
                },
                {
                    "internalType": "address",
                    "name": "_coffeeBuyer",
                    "type": "address"
                },
                {
                    "internalType": "uint256",
                    "name": "_coffeesBought",
                    "type": "uint256"
                },
                {
                    "internalType": "string",
                    "name": "_message",
                    "type": "string"
                }
            ],
            "stateMutability": "view",
            "type": "function"
        },
        {
            "inputs": [
                {
                    "internalType": "address",
                    "name": "",
                    "type": "address"
                }
            ],
            "name": "coffeeMessages",
            "outputs": [
                {
                    "internalType": "string",
                    "name": "",
                    "type": "string"
                }
            ],
            "stateMutability": "view",
            "type": "function"
        },
        {
            "inputs": [],
            "name": "coffeePrice",
            "outputs": [
                {
                    "internalType": "uint256",
                    "name": "",
                    "type": "uint256"
                }
            ],
            "stateMutability": "view",
            "type": "function"
        },
        {
            "inputs": [],
            "name": "getAllCoffeeBuys",
            "outputs": [
                {
                    "components": [
                        {
                            "internalType": "uint256",
                            "name": "_timestamp",
                            "type": "uint256"
                        },
                        {
                            "internalType": "address",
                            "name": "_coffeeBuyer",
                            "type": "address"
                        },
                        {
                            "internalType": "uint256",
                            "name": "_coffeesBought",
                            "type": "uint256"
                        },
                        {
                            "internalType": "string",
                            "name": "_message",
                            "type": "string"
                        }
                    ],
                    "internalType": "struct BuyMeACoffee.CoffeeBuy[]",
                    "name": "",
                    "type": "tuple[]"
                }
            ],
            "stateMutability": "view",
            "type": "function"
        },
        {
            "inputs": [],
            "name": "getTotalCoffee",
            "outputs": [
                {
                    "internalType": "uint256",
                    "name": "",
                    "type": "uint256"
                }
            ],
            "stateMutability": "view",
            "type": "function"
        },
        {
            "inputs": [],
            "name": "owner",
            "outputs": [
                {
                    "internalType": "address payable",
                    "name": "",
                    "type": "address"
                }
            ],
            "stateMutability": "view",
            "type": "function"
        },
        {
            "inputs": [],
            "name": "totalCoffees",
            "outputs": [
                {
                    "internalType": "uint256",
                    "name": "",
                    "type": "uint256"
                }
            ],
            "stateMutability": "view",
            "type": "function"
        },
        {
            "inputs": [],
            "name": "withdraw",
            "outputs": [],
            "stateMutability": "nonpayable",
            "type": "function"
        },
        {
            "stateMutability": "payable",
            "type": "receive"
        }
    ],
    "bytecode": "0x6080604052671bc16d674ec80000600155336000806101000a81548173ffffffffffffffffffffffffffffffffffffffff021916908373ffffffffffffffffffffffffffffffffffffffff1602179055506110638061005f6000396000f3fe6080604052600436106100a05760003560e01c806379a6724e1161006457806379a6724e1461015d5780638da5cb5b1461018857806394cb6852146101b3578063aa2b1135146101f0578063e6c7c4561461022d578063eb7f8c4314610258576100a7565b80631c8a4038146100a95780632b371b54146100d45780633ccfd60b146100f05780634839ee3f146101075780634eb2bcea14610132576100a7565b366100a757005b005b3480156100b557600080fd5b506100be610298565b6040516100cb91906108e9565b60405180910390f35b6100ee60048036038101906100e99190610a5e565b61029e565b005b3480156100fc57600080fd5b50610105610498565b005b34801561011357600080fd5b5061011c6104f8565b60405161012991906108e9565b60405180910390f35b34801561013e57600080fd5b50610147610502565b6040516101549190610ca4565b60405180910390f35b34801561016957600080fd5b5061017261065d565b60405161017f91906108e9565b60405180910390f35b34801561019457600080fd5b5061019d610663565b6040516101aa9190610ce7565b60405180910390f35b3480156101bf57600080fd5b506101da60048036038101906101d59190610d2e565b610687565b6040516101e791906108e9565b60405180910390f35b3480156101fc57600080fd5b5061021760048036038101906102129190610d2e565b61069f565b6040516102249190610da5565b60405180910390f35b34801561023957600080fd5b5061024261073f565b60405161024f91906108e9565b60405180910390f35b34801561026457600080fd5b5061027f600480360381019061027a9190610df3565b610745565b60405161028f9493929190610e2f565b60405180910390f35b60015481565b6001543410156102e3576040517f08c379a00000000000000000000000000000000000000000000000000000000081526004016102da90610ec7565b60405180910390fd5b6000600154346102f39190610f45565b9050600660405180608001604052804281526020013373ffffffffffffffffffffffffffffffffffffffff1681526020018381526020018481525090806001815401808255809150506001900390600052602060002090600402016000909190919091506000820151816000015560208201518160010160006101000a81548173ffffffffffffffffffffffffffffffffffffffff021916908373ffffffffffffffffffffffffffffffffffffffff1602179055506040820151816002015560608201518160030190805190602001906103ce92919061082d565b50505081600560003373ffffffffffffffffffffffffffffffffffffffff1673ffffffffffffffffffffffffffffffffffffffff168152602001908152602001600020908051906020019061042492919061082d565b5080600260008282546104379190610f76565b9250508190555034600360008282546104509190610f76565b925050819055507f959015d41716c8c0c61b9b8985713eebd8e2ce0a8dcd98ad040864639fa7c1854233838560405161048c9493929190610e2f565b60405180910390a15050565b60008054906101000a900473ffffffffffffffffffffffffffffffffffffffff1673ffffffffffffffffffffffffffffffffffffffff166108fc479081150290604051600060405180830381858888f193505050506104f657600080fd5b565b6000600254905090565b60606006805480602002602001604051908101604052809291908181526020016000905b828210156106545783829060005260206000209060040201604051806080016040529081600082015481526020016001820160009054906101000a900473ffffffffffffffffffffffffffffffffffffffff1673ffffffffffffffffffffffffffffffffffffffff1673ffffffffffffffffffffffffffffffffffffffff168152602001600282015481526020016003820180546105c390610ffb565b80601f01602080910402602001604051908101604052809291908181526020018280546105ef90610ffb565b801561063c5780601f106106115761010080835404028352916020019161063c565b820191906000526020600020905b81548152906001019060200180831161061f57829003601f168201915b50505050508152505081526020019060010190610526565b50505050905090565b60025481565b60008054906101000a900473ffffffffffffffffffffffffffffffffffffffff1681565b60046020528060005260406000206000915090505481565b600560205280600052604060002060009150905080546106be90610ffb565b80601f01602080910402602001604051908101604052809291908181526020018280546106ea90610ffb565b80156107375780601f1061070c57610100808354040283529160200191610737565b820191906000526020600020905b81548152906001019060200180831161071a57829003601f168201915b505050505081565b60035481565b6006818154811061075557600080fd5b90600052602060002090600402016000915090508060000154908060010160009054906101000a900473ffffffffffffffffffffffffffffffffffffffff16908060020154908060030180546107aa90610ffb565b80601f01602080910402602001604051908101604052809291908181526020018280546107d690610ffb565b80156108235780601f106107f857610100808354040283529160200191610823565b820191906000526020600020905b81548152906001019060200180831161080657829003601f168201915b5050505050905084565b82805461083990610ffb565b90600052602060002090601f01602090048101928261085b57600085556108a2565b82601f1061087457805160ff19168380011785556108a2565b828001600101855582156108a2579182015b828111156108a1578251825591602001919060010190610886565b5b5090506108af91906108b3565b5090565b5b808211156108cc5760008160009055506001016108b4565b5090565b6000819050919050565b6108e3816108d0565b82525050565b60006020820190506108fe60008301846108da565b92915050565b6000604051905090565b600080fd5b600080fd5b600080fd5b600080fd5b6000601f19601f8301169050919050565b7f4e487b7100000000000000000000000000000000000000000000000000000000600052604160045260246000fd5b61096b82610922565b810181811067ffffffffffffffff8211171561098a57610989610933565b5b80604052505050565b600061099d610904565b90506109a98282610962565b919050565b600067ffffffffffffffff8211156109c9576109c8610933565b5b6109d282610922565b9050602081019050919050565b82818337600083830152505050565b6000610a016109fc846109ae565b610993565b905082815260208101848484011115610a1d57610a1c61091d565b5b610a288482856109df565b509392505050565b600082601f830112610a4557610a44610918565b5b8135610a558482602086016109ee565b91505092915050565b600060208284031215610a7457610a7361090e565b5b600082013567ffffffffffffffff811115610a9257610a91610913565b5b610a9e84828501610a30565b91505092915050565b600081519050919050565b600082825260208201905092915050565b6000819050602082019050919050565b610adc816108d0565b82525050565b600073ffffffffffffffffffffffffffffffffffffffff82169050919050565b6000610b0d82610ae2565b9050919050565b610b1d81610b02565b82525050565b600081519050919050565b600082825260208201905092915050565b60005b83811015610b5d578082015181840152602081019050610b42565b83811115610b6c576000848401525b50505050565b6000610b7d82610b23565b610b878185610b2e565b9350610b97818560208601610b3f565b610ba081610922565b840191505092915050565b6000608083016000830151610bc36000860182610ad3565b506020830151610bd66020860182610b14565b506040830151610be96040860182610ad3565b5060608301518482036060860152610c018282610b72565b9150508091505092915050565b6000610c1a8383610bab565b905092915050565b6000602082019050919050565b6000610c3a82610aa7565b610c448185610ab2565b935083602082028501610c5685610ac3565b8060005b85811015610c925784840389528151610c738582610c0e565b9450610c7e83610c22565b925060208a01995050600181019050610c5a565b50829750879550505050505092915050565b60006020820190508181036000830152610cbe8184610c2f565b905092915050565b6000610cd182610ae2565b9050919050565b610ce181610cc6565b82525050565b6000602082019050610cfc6000830184610cd8565b92915050565b610d0b81610b02565b8114610d1657600080fd5b50565b600081359050610d2881610d02565b92915050565b600060208284031215610d4457610d4361090e565b5b6000610d5284828501610d19565b91505092915050565b600082825260208201905092915050565b6000610d7782610b23565b610d818185610d5b565b9350610d91818560208601610b3f565b610d9a81610922565b840191505092915050565b60006020820190508181036000830152610dbf8184610d6c565b905092915050565b610dd0816108d0565b8114610ddb57600080fd5b50565b600081359050610ded81610dc7565b92915050565b600060208284031215610e0957610e0861090e565b5b6000610e1784828501610dde565b91505092915050565b610e2981610b02565b82525050565b6000608082019050610e4460008301876108da565b610e516020830186610e20565b610e5e60408301856108da565b8181036060830152610e708184610d6c565b905095945050505050565b7f436f6666656520636f737473206d6f7265207468616e20746861742100000000600082015250565b6000610eb1601c83610d5b565b9150610ebc82610e7b565b602082019050919050565b60006020820190508181036000830152610ee081610ea4565b9050919050565b7f4e487b7100000000000000000000000000000000000000000000000000000000600052601260045260246000fd5b7f4e487b7100000000000000000000000000000000000000000000000000000000600052601160045260246000fd5b6000610f50826108d0565b9150610f5b836108d0565b925082610f6b57610f6a610ee7565b5b828204905092915050565b6000610f81826108d0565b9150610f8c836108d0565b9250827fffffffffffffffffffffffffffffffffffffffffffffffffffffffffffffffff03821115610fc157610fc0610f16565b5b828201905092915050565b7f4e487b7100000000000000000000000000000000000000000000000000000000600052602260045260246000fd5b6000600282049050600182168061101357607f821691505b6020821081141561102757611026610fcc565b5b5091905056fea2646970667358221220c81a9f0a8e709c6ba7580a88cdc3ea71a0ce01e1805d8989b6588d16162ca0cd64736f6c63430008090033",
    "linkReferences": {},
    "deployedLinkReferences": {}
}